{
  "address": "0xB06296feC71f80B62D0C85AD823DA9f6413913F9",
  "abi": [
    {
      "inputs": [],
      "stateMutability": "nonpayable",
      "type": "constructor"
    },
    {
      "inputs": [
        {
          "internalType": "uint256",
          "name": "prod1",
          "type": "uint256"
        }
      ],
      "name": "PRBMath__MulDivFixedPointOverflow",
      "type": "error"
    },
    {
      "inputs": [
        {
          "internalType": "uint256",
          "name": "prod1",
          "type": "uint256"
        },
        {
          "internalType": "uint256",
          "name": "denominator",
          "type": "uint256"
        }
      ],
      "name": "PRBMath__MulDivOverflow",
      "type": "error"
    },
    {
      "anonymous": false,
      "inputs": [
        {
          "indexed": true,
          "internalType": "address",
          "name": "user",
          "type": "address"
        },
        {
          "indexed": false,
          "internalType": "uint256",
          "name": "amount",
          "type": "uint256"
        }
      ],
      "name": "Deposit",
      "type": "event"
    },
    {
      "anonymous": false,
      "inputs": [
        {
          "indexed": true,
          "internalType": "bytes32",
          "name": "role",
          "type": "bytes32"
        },
        {
          "indexed": true,
          "internalType": "bytes32",
          "name": "previousAdminRole",
          "type": "bytes32"
        },
        {
          "indexed": true,
          "internalType": "bytes32",
          "name": "newAdminRole",
          "type": "bytes32"
        }
      ],
      "name": "RoleAdminChanged",
      "type": "event"
    },
    {
      "anonymous": false,
      "inputs": [
        {
          "indexed": true,
          "internalType": "bytes32",
          "name": "role",
          "type": "bytes32"
        },
        {
          "indexed": true,
          "internalType": "address",
          "name": "account",
          "type": "address"
        },
        {
          "indexed": true,
          "internalType": "address",
          "name": "sender",
          "type": "address"
        }
      ],
      "name": "RoleGranted",
      "type": "event"
    },
    {
      "anonymous": false,
      "inputs": [
        {
          "indexed": true,
          "internalType": "bytes32",
          "name": "role",
          "type": "bytes32"
        },
        {
          "indexed": true,
          "internalType": "address",
          "name": "account",
          "type": "address"
        },
        {
          "indexed": true,
          "internalType": "address",
          "name": "sender",
          "type": "address"
        }
      ],
      "name": "RoleRevoked",
      "type": "event"
    },
    {
      "anonymous": false,
      "inputs": [
        {
          "indexed": true,
          "internalType": "address",
          "name": "user",
          "type": "address"
        },
        {
          "indexed": false,
          "internalType": "uint256",
          "name": "amount",
          "type": "uint256"
        }
      ],
      "name": "Withdraw",
      "type": "event"
    },
    {
      "inputs": [],
      "name": "DEFAULT_ADMIN_ROLE",
      "outputs": [
        {
          "internalType": "bytes32",
          "name": "",
          "type": "bytes32"
        }
      ],
      "stateMutability": "view",
      "type": "function"
    },
    {
      "inputs": [],
      "name": "TEAM_MEMBER_ROLE",
      "outputs": [
        {
          "internalType": "bytes32",
          "name": "",
          "type": "bytes32"
        }
      ],
      "stateMutability": "view",
      "type": "function"
    },
    {
      "inputs": [],
      "name": "balance",
      "outputs": [
        {
          "internalType": "uint256",
          "name": "",
          "type": "uint256"
        }
      ],
      "stateMutability": "view",
      "type": "function"
    },
    {
      "inputs": [
        {
          "internalType": "address",
          "name": "_user",
          "type": "address"
        }
      ],
      "name": "balanceOf",
      "outputs": [
        {
          "internalType": "uint256",
          "name": "",
          "type": "uint256"
        }
      ],
      "stateMutability": "view",
      "type": "function"
    },
    {
      "inputs": [],
      "name": "deposit",
      "outputs": [],
      "stateMutability": "payable",
      "type": "function"
    },
    {
      "inputs": [],
      "name": "distribute",
      "outputs": [],
      "stateMutability": "payable",
      "type": "function"
    },
    {
      "inputs": [
        {
          "internalType": "bytes32",
          "name": "role",
          "type": "bytes32"
        }
      ],
      "name": "getRoleAdmin",
      "outputs": [
        {
          "internalType": "bytes32",
          "name": "",
          "type": "bytes32"
        }
      ],
      "stateMutability": "view",
      "type": "function"
    },
    {
      "inputs": [
        {
          "internalType": "bytes32",
          "name": "role",
          "type": "bytes32"
        },
        {
          "internalType": "address",
          "name": "account",
          "type": "address"
        }
      ],
      "name": "grantRole",
      "outputs": [],
      "stateMutability": "nonpayable",
      "type": "function"
    },
    {
      "inputs": [
        {
          "internalType": "bytes32",
          "name": "role",
          "type": "bytes32"
        },
        {
          "internalType": "address",
          "name": "account",
          "type": "address"
        }
      ],
      "name": "hasRole",
      "outputs": [
        {
          "internalType": "bool",
          "name": "",
          "type": "bool"
        }
      ],
      "stateMutability": "view",
      "type": "function"
    },
    {
      "inputs": [
        {
          "internalType": "address",
          "name": "_user",
          "type": "address"
        }
      ],
      "name": "pendingRewards",
      "outputs": [
        {
          "internalType": "uint256",
          "name": "",
          "type": "uint256"
        }
      ],
      "stateMutability": "view",
      "type": "function"
    },
    {
      "inputs": [
        {
          "internalType": "bytes32",
          "name": "role",
          "type": "bytes32"
        },
        {
          "internalType": "address",
          "name": "account",
          "type": "address"
        }
      ],
      "name": "renounceRole",
      "outputs": [],
      "stateMutability": "nonpayable",
      "type": "function"
    },
    {
      "inputs": [
        {
          "internalType": "bytes32",
          "name": "role",
          "type": "bytes32"
        },
        {
          "internalType": "address",
          "name": "account",
          "type": "address"
        }
      ],
      "name": "revokeRole",
      "outputs": [],
      "stateMutability": "nonpayable",
      "type": "function"
    },
    {
      "inputs": [],
      "name": "rewardPerShare",
      "outputs": [
        {
          "internalType": "uint256",
          "name": "",
          "type": "uint256"
        }
      ],
      "stateMutability": "view",
      "type": "function"
    },
    {
      "inputs": [
        {
          "internalType": "bytes4",
          "name": "interfaceId",
          "type": "bytes4"
        }
      ],
      "name": "supportsInterface",
      "outputs": [
        {
          "internalType": "bool",
          "name": "",
          "type": "bool"
        }
      ],
      "stateMutability": "view",
      "type": "function"
    },
    {
      "inputs": [],
      "name": "totalStaked",
      "outputs": [
        {
          "internalType": "uint256",
          "name": "",
          "type": "uint256"
        }
      ],
      "stateMutability": "view",
      "type": "function"
    },
    {
      "inputs": [
        {
          "internalType": "uint256",
          "name": "_amount",
          "type": "uint256"
        }
      ],
      "name": "withdraw",
      "outputs": [],
      "stateMutability": "nonpayable",
      "type": "function"
    }
  ],
  "transactionHash": "0xab38ee06bc2b09d1a1bc3d83ee86225aa2134607ded06c16c4807e4c0511537e",
  "args": [],
  "numDeployments": 1,
  "solcInputHash": "14e75f51199fbc02fe7f1331fd3ee8b0",
  "bytecode": "0x60806040523480156200001157600080fd5b50620000276000801b336200005f60201b60201c565b620000597f6a74bd5720a9ba372841f356cf6872b1006d19dfc367da64ab98cf47824ed3c0336200005f60201b60201c565b620001c2565b6200007182826200015060201b60201c565b6200014c57600160008084815260200190815260200160002060000160008373ffffffffffffffffffffffffffffffffffffffff1673ffffffffffffffffffffffffffffffffffffffff16815260200190815260200160002060006101000a81548160ff021916908315150217905550620000f1620001ba60201b60201c565b73ffffffffffffffffffffffffffffffffffffffff168173ffffffffffffffffffffffffffffffffffffffff16837f2f8788117e7eff1d82e926ec794901d17c78024a50270940304540a733656f0d60405160405180910390a45b5050565b600080600084815260200190815260200160002060000160008373ffffffffffffffffffffffffffffffffffffffff1673ffffffffffffffffffffffffffffffffffffffff16815260200190815260200160002060009054906101000a900460ff16905092915050565b600033905090565b611e2c80620001d26000396000f3fe6080604052600436106100f35760003560e01c806370a082311161008a578063b69ef8a811610059578063b69ef8a814610350578063d0e30db01461037b578063d547741f14610385578063e4fc6b6d146103ae576100f3565b806370a0823114610280578063817b1cd2146102bd57806391d14854146102e8578063a217fddf14610325576100f3565b806331d7a262116100c657806331d7a262146101c457806336568abe14610201578063446a2ec81461022a5780636b9cbe1114610255576100f3565b806301ffc9a7146100f8578063248a9ca3146101355780632e1a7d4d146101725780632f2ff15d1461019b575b600080fd5b34801561010457600080fd5b5061011f600480360381019061011a9190611505565b6103b8565b60405161012c91906117be565b60405180910390f35b34801561014157600080fd5b5061015c600480360381019061015791906114a0565b610432565b60405161016991906117d9565b60405180910390f35b34801561017e57600080fd5b506101996004803603810190610194919061152e565b610451565b005b3480156101a757600080fd5b506101c260048036038101906101bd91906114c9565b610597565b005b3480156101d057600080fd5b506101eb60048036038101906101e69190611477565b6105c0565b6040516101f89190611916565b60405180910390f35b34801561020d57600080fd5b50610228600480360381019061022391906114c9565b610667565b005b34801561023657600080fd5b5061023f6106ea565b60405161024c9190611916565b60405180910390f35b34801561026157600080fd5b5061026a6106f0565b60405161027791906117d9565b60405180910390f35b34801561028c57600080fd5b506102a760048036038101906102a29190611477565b610714565b6040516102b49190611916565b60405180910390f35b3480156102c957600080fd5b506102d261075d565b6040516102df9190611916565b60405180910390f35b3480156102f457600080fd5b5061030f600480360381019061030a91906114c9565b610763565b60405161031c91906117be565b60405180910390f35b34801561033157600080fd5b5061033a6107cd565b60405161034791906117d9565b60405180910390f35b34801561035c57600080fd5b506103656107d4565b6040516103729190611916565b60405180910390f35b6103836107dc565b005b34801561039157600080fd5b506103ac60048036038101906103a791906114c9565b6108ad565b005b6103b66108d6565b005b60007f7965db0b000000000000000000000000000000000000000000000000000000007bffffffffffffffffffffffffffffffffffffffffffffffffffffffff1916827bffffffffffffffffffffffffffffffffffffffffffffffffffffffff1916148061042b575061042a826109f6565b5b9050919050565b6000806000838152602001908152602001600020600101549050919050565b61045a33610714565b81111561049c576040517f08c379a000000000000000000000000000000000000000000000000000000000815260040161049390611856565b60405180910390fd5b6104a533610a60565b80600160003373ffffffffffffffffffffffffffffffffffffffff1673ffffffffffffffffffffffffffffffffffffffff16815260200190815260200160002060008282546104f49190611a3c565b92505081905550806004600082825461050d9190611a3c565b9250508190555061051d33610aa4565b610546813373ffffffffffffffffffffffffffffffffffffffff16610b3e90919063ffffffff16565b3373ffffffffffffffffffffffffffffffffffffffff167f884edad9ce6fa2440d8a54cc123490eb96d2768479d49ff9c7366125a94243648260405161058c9190611916565b60405180910390a250565b6105a082610432565b6105b1816105ac610c32565b610c3a565b6105bb8383610cd7565b505050565b6000600260008373ffffffffffffffffffffffffffffffffffffffff1673ffffffffffffffffffffffffffffffffffffffff16815260200190815260200160002054610656600354600160008673ffffffffffffffffffffffffffffffffffffffff1673ffffffffffffffffffffffffffffffffffffffff16815260200190815260200160002054610db790919063ffffffff16565b6106609190611a3c565b9050919050565b61066f610c32565b73ffffffffffffffffffffffffffffffffffffffff168173ffffffffffffffffffffffffffffffffffffffff16146106dc576040517f08c379a00000000000000000000000000000000000000000000000000000000081526004016106d3906118f6565b60405180910390fd5b6106e68282610dcb565b5050565b60035481565b7f6a74bd5720a9ba372841f356cf6872b1006d19dfc367da64ab98cf47824ed3c081565b6000600160008373ffffffffffffffffffffffffffffffffffffffff1673ffffffffffffffffffffffffffffffffffffffff168152602001908152602001600020549050919050565b60045481565b600080600084815260200190815260200160002060000160008373ffffffffffffffffffffffffffffffffffffffff1673ffffffffffffffffffffffffffffffffffffffff16815260200190815260200160002060009054906101000a900460ff16905092915050565b6000801b81565b600047905090565b6107e533610a60565b34600160003373ffffffffffffffffffffffffffffffffffffffff1673ffffffffffffffffffffffffffffffffffffffff1681526020019081526020016000206000828254610834919061198c565b92505081905550346004600082825461084d919061198c565b9250508190555061085d33610aa4565b3373ffffffffffffffffffffffffffffffffffffffff167fe1fffcc4923d04b559f4d29a8bfc6cda04eb5b0d3c460751c2402c5c5cc9109c346040516108a39190611916565b60405180910390a2565b6108b682610432565b6108c7816108c2610c32565b610c3a565b6108d18383610dcb565b505050565b6109007f6a74bd5720a9ba372841f356cf6872b1006d19dfc367da64ab98cf47824ed3c033610763565b61093f576040517f08c379a0000000000000000000000000000000000000000000000000000000008152600401610936906118d6565b60405180910390fd5b60003411610982576040517f08c379a0000000000000000000000000000000000000000000000000000000008152600401610979906118b6565b60405180910390fd5b6000600454116109c7576040517f08c379a00000000000000000000000000000000000000000000000000000000081526004016109be90611836565b60405180910390fd5b6109dc60045434610eac90919063ffffffff16565b600360008282546109ed919061198c565b92505081905550565b60007f01ffc9a7000000000000000000000000000000000000000000000000000000007bffffffffffffffffffffffffffffffffffffffffffffffffffffffff1916827bffffffffffffffffffffffffffffffffffffffffffffffffffffffff1916149050919050565b6000610a6b826105c0565b90506000811115610aa057610a9f813373ffffffffffffffffffffffffffffffffffffffff16610b3e90919063ffffffff16565b5b5050565b610af8600354600160008473ffffffffffffffffffffffffffffffffffffffff1673ffffffffffffffffffffffffffffffffffffffff16815260200190815260200160002054610db790919063ffffffff16565b600260008373ffffffffffffffffffffffffffffffffffffffff1673ffffffffffffffffffffffffffffffffffffffff1681526020019081526020016000208190555050565b80471015610b81576040517f08c379a0000000000000000000000000000000000000000000000000000000008152600401610b7890611896565b60405180910390fd5b60008273ffffffffffffffffffffffffffffffffffffffff1682604051610ba79061176f565b60006040518083038185875af1925050503d8060008114610be4576040519150601f19603f3d011682016040523d82523d6000602084013e610be9565b606091505b5050905080610c2d576040517f08c379a0000000000000000000000000000000000000000000000000000000008152600401610c2490611876565b60405180910390fd5b505050565b600033905090565b610c448282610763565b610cd357610c698173ffffffffffffffffffffffffffffffffffffffff166014610ec9565b610c778360001c6020610ec9565b604051602001610c88929190611784565b6040516020818303038152906040526040517f08c379a0000000000000000000000000000000000000000000000000000000008152600401610cca91906117f4565b60405180910390fd5b5050565b610ce18282610763565b610db357600160008084815260200190815260200160002060000160008373ffffffffffffffffffffffffffffffffffffffff1673ffffffffffffffffffffffffffffffffffffffff16815260200190815260200160002060006101000a81548160ff021916908315150217905550610d58610c32565b73ffffffffffffffffffffffffffffffffffffffff168173ffffffffffffffffffffffffffffffffffffffff16837f2f8788117e7eff1d82e926ec794901d17c78024a50270940304540a733656f0d60405160405180910390a45b5050565b6000610dc383836111c3565b905092915050565b610dd58282610763565b15610ea857600080600084815260200190815260200160002060000160008373ffffffffffffffffffffffffffffffffffffffff1673ffffffffffffffffffffffffffffffffffffffff16815260200190815260200160002060006101000a81548160ff021916908315150217905550610e4d610c32565b73ffffffffffffffffffffffffffffffffffffffff168173ffffffffffffffffffffffffffffffffffffffff16837ff6391f5c32d9c69d2a47ea670b442974b53935d1edc7fd64eb21e047a839171b60405160405180910390a45b5050565b6000610ec183670de0b6b3a7640000846112e7565b905092915050565b606060006002836002610edc91906119e2565b610ee6919061198c565b67ffffffffffffffff811115610f25577f4e487b7100000000000000000000000000000000000000000000000000000000600052604160045260246000fd5b6040519080825280601f01601f191660200182016040528015610f575781602001600182028036833780820191505090505b5090507f300000000000000000000000000000000000000000000000000000000000000081600081518110610fb5577f4e487b7100000000000000000000000000000000000000000000000000000000600052603260045260246000fd5b60200101907effffffffffffffffffffffffffffffffffffffffffffffffffffffffffffff1916908160001a9053507f78000000000000000000000000000000000000000000000000000000000000008160018151811061103f577f4e487b7100000000000000000000000000000000000000000000000000000000600052603260045260246000fd5b60200101907effffffffffffffffffffffffffffffffffffffffffffffffffffffffffffff1916908160001a9053506000600184600261107f91906119e2565b611089919061198c565b90505b6001811115611175577f3031323334353637383961626364656600000000000000000000000000000000600f8616601081106110f1577f4e487b7100000000000000000000000000000000000000000000000000000000600052603260045260246000fd5b1a60f81b82828151811061112e577f4e487b7100000000000000000000000000000000000000000000000000000000600052603260045260246000fd5b60200101907effffffffffffffffffffffffffffffffffffffffffffffffffffffffffffff1916908160001a905350600485901c94508061116e90611b21565b905061108c565b50600084146111b9576040517f08c379a00000000000000000000000000000000000000000000000000000000081526004016111b090611816565b60405180910390fd5b8091505092915050565b60008060008019848609848602925082811083820303915050670de0b6b3a7640000811061122857806040517fd31b340200000000000000000000000000000000000000000000000000000000815260040161121f9190611916565b60405180910390fd5b600080670de0b6b3a764000086880991506706f05b59d3b1ffff82119050600083141561129b5780670de0b6b3a7640000858161128e577f4e487b7100000000000000000000000000000000000000000000000000000000600052601260045260246000fd5b04019450505050506112e1565b807faccb18165bd6fe31ae1cf318dc5b51eee0e1ba569b88cd74c1773b91fac1066960016204000080600003040186851186030262040000858803041702019450505050505b92915050565b6000806000801985870985870292508281108382030391505060008114156113495783828161133f577f4e487b7100000000000000000000000000000000000000000000000000000000600052601260045260246000fd5b049250505061141c565b83811061138f5780846040517f773cc18c000000000000000000000000000000000000000000000000000000008152600401611386929190611931565b60405180910390fd5b60008486880990508281118203915080830392506000600186190186169050808604955080840493506001818260000304019050808302841793506000600287600302189050808702600203810290508087026002038102905080870260020381029050808702600203810290508087026002038102905080870260020381029050808502955050505050505b9392505050565b60008135905061143281611d9a565b92915050565b60008135905061144781611db1565b92915050565b60008135905061145c81611dc8565b92915050565b60008135905061147181611ddf565b92915050565b60006020828403121561148957600080fd5b600061149784828501611423565b91505092915050565b6000602082840312156114b257600080fd5b60006114c084828501611438565b91505092915050565b600080604083850312156114dc57600080fd5b60006114ea85828601611438565b92505060206114fb85828601611423565b9150509250929050565b60006020828403121561151757600080fd5b60006115258482850161144d565b91505092915050565b60006020828403121561154057600080fd5b600061154e84828501611462565b91505092915050565b61156081611a82565b82525050565b61156f81611a8e565b82525050565b60006115808261195a565b61158a8185611970565b935061159a818560208601611aee565b6115a381611b7a565b840191505092915050565b60006115b98261195a565b6115c38185611981565b93506115d3818560208601611aee565b80840191505092915050565b60006115ec602083611970565b91506115f782611b8b565b602082019050919050565b600061160f601883611970565b915061161a82611bb4565b602082019050919050565b6000611632601483611970565b915061163d82611bdd565b602082019050919050565b6000611655603a83611970565b915061166082611c06565b604082019050919050565b6000611678601d83611970565b915061168382611c55565b602082019050919050565b600061169b602a83611970565b91506116a682611c7e565b604082019050919050565b60006116be601b83611970565b91506116c982611ccd565b602082019050919050565b60006116e1600083611965565b91506116ec82611cf6565b600082019050919050565b6000611704601783611981565b915061170f82611cf9565b601782019050919050565b6000611727601183611981565b915061173282611d22565b601182019050919050565b600061174a602f83611970565b915061175582611d4b565b604082019050919050565b61176981611ae4565b82525050565b600061177a826116d4565b9150819050919050565b600061178f826116f7565b915061179b82856115ae565b91506117a68261171a565b91506117b282846115ae565b91508190509392505050565b60006020820190506117d36000830184611557565b92915050565b60006020820190506117ee6000830184611566565b92915050565b6000602082019050818103600083015261180e8184611575565b905092915050565b6000602082019050818103600083015261182f816115df565b9050919050565b6000602082019050818103600083015261184f81611602565b9050919050565b6000602082019050818103600083015261186f81611625565b9050919050565b6000602082019050818103600083015261188f81611648565b9050919050565b600060208201905081810360008301526118af8161166b565b9050919050565b600060208201905081810360008301526118cf8161168e565b9050919050565b600060208201905081810360008301526118ef816116b1565b9050919050565b6000602082019050818103600083015261190f8161173d565b9050919050565b600060208201905061192b6000830184611760565b92915050565b60006040820190506119466000830185611760565b6119536020830184611760565b9392505050565b600081519050919050565b600081905092915050565b600082825260208201905092915050565b600081905092915050565b600061199782611ae4565b91506119a283611ae4565b9250827fffffffffffffffffffffffffffffffffffffffffffffffffffffffffffffffff038211156119d7576119d6611b4b565b5b828201905092915050565b60006119ed82611ae4565b91506119f883611ae4565b9250817fffffffffffffffffffffffffffffffffffffffffffffffffffffffffffffffff0483118215151615611a3157611a30611b4b565b5b828202905092915050565b6000611a4782611ae4565b9150611a5283611ae4565b925082821015611a6557611a64611b4b565b5b828203905092915050565b6000611a7b82611ac4565b9050919050565b60008115159050919050565b6000819050919050565b60007fffffffff0000000000000000000000000000000000000000000000000000000082169050919050565b600073ffffffffffffffffffffffffffffffffffffffff82169050919050565b6000819050919050565b60005b83811015611b0c578082015181840152602081019050611af1565b83811115611b1b576000848401525b50505050565b6000611b2c82611ae4565b91506000821415611b4057611b3f611b4b565b5b600182039050919050565b7f4e487b7100000000000000000000000000000000000000000000000000000000600052601160045260246000fd5b6000601f19601f8301169050919050565b7f537472696e67733a20686578206c656e67746820696e73756666696369656e74600082015250565b7f546f74616c207374616b656420616d6f756e7420697320300000000000000000600082015250565b7f496e73756666696369656e742062616c616e6365000000000000000000000000600082015250565b7f416464726573733a20756e61626c6520746f2073656e642076616c75652c207260008201527f6563697069656e74206d61792068617665207265766572746564000000000000602082015250565b7f416464726573733a20696e73756666696369656e742062616c616e6365000000600082015250565b7f446973747269627574696f6e20616d6f756e74206d757374206265206772656160008201527f746572207468616e203000000000000000000000000000000000000000000000602082015250565b7f53656e646572206973206e6f742061207465616d206d656d6265720000000000600082015250565b50565b7f416363657373436f6e74726f6c3a206163636f756e7420000000000000000000600082015250565b7f206973206d697373696e6720726f6c6520000000000000000000000000000000600082015250565b7f416363657373436f6e74726f6c3a2063616e206f6e6c792072656e6f756e636560008201527f20726f6c657320666f722073656c660000000000000000000000000000000000602082015250565b611da381611a70565b8114611dae57600080fd5b50565b611dba81611a8e565b8114611dc557600080fd5b50565b611dd181611a98565b8114611ddc57600080fd5b50565b611de881611ae4565b8114611df357600080fd5b5056fea2646970667358221220b94e962a9a30d3b3550050b1c1af7ebc5857e28f8d7d22f783c99e5c648fe97964736f6c63430008040033",
  "devdoc": {
    "kind": "dev",
    "methods": {
      "getRoleAdmin(bytes32)": {
        "details": "Returns the admin role that controls `role`. See {grantRole} and {revokeRole}. To change a role's admin, use {_setRoleAdmin}."
      },
      "grantRole(bytes32,address)": {
        "details": "Grants `role` to `account`. If `account` had not been already granted `role`, emits a {RoleGranted} event. Requirements: - the caller must have ``role``'s admin role."
      },
      "hasRole(bytes32,address)": {
        "details": "Returns `true` if `account` has been granted `role`."
      },
      "renounceRole(bytes32,address)": {
        "details": "Revokes `role` from the calling account. Roles are often managed via {grantRole} and {revokeRole}: this function's purpose is to provide a mechanism for accounts to lose their privileges if they are compromised (such as when a trusted device is misplaced). If the calling account had been revoked `role`, emits a {RoleRevoked} event. Requirements: - the caller must be `account`."
      },
      "revokeRole(bytes32,address)": {
        "details": "Revokes `role` from `account`. If `account` had been granted `role`, emits a {RoleRevoked} event. Requirements: - the caller must have ``role``'s admin role."
      },
      "supportsInterface(bytes4)": {
        "details": "See {IERC165-supportsInterface}."
      }
    },
    "version": 1
  },
  "userdoc": {
    "errors": {
      "PRBMath__MulDivFixedPointOverflow(uint256)": [
        {
          "notice": "Emitted when the result overflows uint256."
        }
      ],
      "PRBMath__MulDivOverflow(uint256,uint256)": [
        {
          "notice": "Emitted when the result overflows uint256."
        }
      ]
    },
    "kind": "user",
    "methods": {},
    "version": 1
  },
  "storageLayout": {
    "storage": [
      {
        "astId": 24,
        "contract": "contracts/ETHPool.sol:ETHPool",
        "label": "_roles",
        "offset": 0,
        "slot": "0",
        "type": "t_mapping(t_bytes32,t_struct(RoleData)19_storage)"
      },
      {
        "astId": 971,
        "contract": "contracts/ETHPool.sol:ETHPool",
        "label": "stakes",
        "offset": 0,
        "slot": "1",
        "type": "t_mapping(t_address,t_uint256)"
      },
      {
        "astId": 975,
        "contract": "contracts/ETHPool.sol:ETHPool",
        "label": "rewardDebts",
        "offset": 0,
        "slot": "2",
        "type": "t_mapping(t_address,t_uint256)"
      },
      {
        "astId": 977,
        "contract": "contracts/ETHPool.sol:ETHPool",
        "label": "rewardPerShare",
        "offset": 0,
        "slot": "3",
        "type": "t_uint256"
      },
      {
        "astId": 979,
        "contract": "contracts/ETHPool.sol:ETHPool",
        "label": "totalStaked",
        "offset": 0,
        "slot": "4",
        "type": "t_uint256"
      }
    ],
    "types": {
      "t_address": {
        "encoding": "inplace",
        "label": "address",
        "numberOfBytes": "20"
      },
      "t_bool": {
        "encoding": "inplace",
        "label": "bool",
        "numberOfBytes": "1"
      },
      "t_bytes32": {
        "encoding": "inplace",
        "label": "bytes32",
        "numberOfBytes": "32"
      },
      "t_mapping(t_address,t_bool)": {
        "encoding": "mapping",
        "key": "t_address",
        "label": "mapping(address => bool)",
        "numberOfBytes": "32",
        "value": "t_bool"
      },
      "t_mapping(t_address,t_uint256)": {
        "encoding": "mapping",
        "key": "t_address",
        "label": "mapping(address => uint256)",
        "numberOfBytes": "32",
        "value": "t_uint256"
      },
      "t_mapping(t_bytes32,t_struct(RoleData)19_storage)": {
        "encoding": "mapping",
        "key": "t_bytes32",
        "label": "mapping(bytes32 => struct AccessControl.RoleData)",
        "numberOfBytes": "32",
        "value": "t_struct(RoleData)19_storage"
      },
      "t_struct(RoleData)19_storage": {
        "encoding": "inplace",
        "label": "struct AccessControl.RoleData",
        "members": [
          {
            "astId": 16,
            "contract": "contracts/ETHPool.sol:ETHPool",
            "label": "members",
            "offset": 0,
            "slot": "0",
            "type": "t_mapping(t_address,t_bool)"
          },
          {
            "astId": 18,
            "contract": "contracts/ETHPool.sol:ETHPool",
            "label": "adminRole",
            "offset": 0,
            "slot": "1",
            "type": "t_bytes32"
          }
        ],
        "numberOfBytes": "64"
      },
      "t_uint256": {
        "encoding": "inplace",
        "label": "uint256",
        "numberOfBytes": "32"
      }
    }
  }
}